:1000000012C02AC029C028C060C026C025C024C094
:1000100023C022C021C020C01FC01EC01DC01CC0E4
:100020001BC01AC019C011241FBECFEDCDBF10E0F8
:10003000A0E6B0E0EAEFF6E002C005900D92A63827
:10004000B107D9F720E0A6E8B0E001C01D92AE39B3
:10005000B207E1F76BD14FC3D3CF60FF03C09498D1
:1000600095980895949A959A0895B998BA98BB98D6
:10007000BC98889A899A8A9A8B9A8D9A8C9A42B35C
:1000800081E090E09C010090600002C0220F331FCD
:100090000A94E2F7242B22BB32B3AC010090640037
:1000A00002C0440F551F0A94E2F7242F2095232302
:1000B00022BB22B30090620002C0880F991F0A94ED
:1000C000E2F78095822382BB08951F920F920FB6AC
:1000D0000F9211242F938F939F93AF93BF9380918F
:1000E000920090919300A0919400B0919500019698
:1000F000A11DB11D8093920090939300A093940052
:10010000B09395008091920090919300A0919400FB
:10011000B091950080FD13C080918E0090918F006A
:10012000A0919000B09191000196A11DB11D809306
:100130008E0090938F00A0939000B09391008091D7
:100140008E0090918F00A0919000B0919100803826
:100150009145A140B10540F010928E0010928F00A1
:100160001092900010929100BF91AF919F918F914A
:100170002F910F900FBE0F901F901895CF93DF9384
:10018000EC0160918E0070918F00809190009091B1
:1001900091002CE330E040E050E0FFD1C9016CE376
:1001A00070E0E8D1FB012AE030E0B901E3D19F83A0
:1001B0008E837D836C83CF01B901DCD19B838A83DD
:1001C00079836883DF91CF910895880F991FFC018F
:1001D000EA59FF4F0190F081E02DF89428E030E0DB
:1001E00081E090E0AF0141705527F595E795452BEB
:1001F00059F062B3AC010090860002C0440F551F55
:100200000A94E2F7462B0CC052B3BC010090860062
:1002100002C0660F771F0A94E2F7462F40954523E8
:1002200042BB62B3AC010090640002C0440F551F92
:100230000A94E2F7462B42BB52B3BC010090640023
:1002400002C0660F771F0A94E2F7462F40954523B8
:1002500042BB2150310931F6789408950F931F93D2
:10026000CF93DF938C0192B321E030E000906200E5
:1002700002C0220F331F0A94E2F72095292322BBE4
:10028000C0E0D0E0F801EC0FFD1F808191819DDF7F
:100290002296C830D105B1F722B381E090E00090FA
:1002A000620002C0880F991F0A94E2F7822B82BB7A
:1002B000DF91CF911F910F910895F89482E19AE711
:1002C0009BBD8ABD8EB588608EBD89B7806489BFAD
:1002D0008EB584608EBD7894089580918A00909147
:1002E0008B001816190634F4019790938B008093B5
:1002F0008A0019C026B330E0209530952E7133273F
:1003000080918800909189002817390761F0309317
:1003100089002093880082E390E090938B00809383
:100320008A00C901089580E090E008959EDEC5DF4F
:10033000C1E0D0E084E4882E81E5982EAA24A3941D
:10034000B12C90E7492E93E4592E66246394712CC6
:100350002CE3C22ED12CE12CF12C20908C0030907B
:100360008D002FEF221A320A83E0282233243092A4
:100370008D0020928C0080918E0090918F00A09132
:100380009000B091910081349941A140B10598F459
:1003900040918E0050918F0060919000709191007B
:1003A00091E080E0403752466105710508F090E029
:1003B000092F182F02C001E010E086E990E0DEDE90
:1003C00086E990E04BDF012B79F0232869F092B3A6
:1003D0009E010090600002C0220F331F0A94E2F7D2
:1003E000822F809589230AC022B3CE01009060003D
:1003F00002C0880F991F0A94E2F7822B82BB60919A
:10040000920070919300809194009091950025DE68
:1004100064DF009709F4A1CF84309105C9F088F416
:100420008230910509F06EC040918E0050918F008E
:100430006091900070919100445C5F4F6F4F7F4FCF
:1004400036C08830910539F180319105C9F15AC023
:1004500040918E0050918F006091900070919100BA
:100460004C3351056105710568F040918E00509143
:100470008F0060919000709191004C535109610977
:10048000710915C080928E0090928F00A09290000A
:10049000B092910037C040918E0050918F006091D2
:1004A000900070919100405F514F6F4F7F4F40938C
:1004B0008E0050938F00609390007093910022C043
:1004C00040918E0050918F0060919000709191004A
:1004D00040315E406105710568F040918E00509199
:1004E0008F00609190007091910040515E406109D1
:1004F0007109DDCF40928E0050928F006092900083
:100500007092910040918E0050918F006091900008
:1005100070919100403851456140710540F0109252
:100520008E0010928F0010929000109291008230F5
:10053000910519F0049709F010CF60918E00709129
:100540008F008091900090919100A701960125D095
:10055000CA01B9012CE330E040E050E042D0C901CB
:10056000DA0180938E0090938F00A0939000B09357
:100570009100F3CE97FB072E16F4009406D077FD7A
:1005800008D077D007FC05D03EF4909581959F4F19
:100590000895709561957F4F0895A1E21A2EAA1BC8
:1005A000BB1BFD010DC0AA1FBB1FEE1FFF1FA21723
:1005B000B307E407F50720F0A21BB30BE40BF50B20
:1005C000661F771F881F991F1A9469F760957095A9
:1005D000809590959B01AC01BD01CF010895689471
:1005E0000013E894A0E0B0E0E7EFF2E01DC0EFEF09
:1005F000E7F959016A015E23550FEE08FE2C8701C9
:100600009B01AC019E23990F660B762FCB0145D041
:10061000CDB7DD27EAE01FC02F923F924F925F9245
:100620006F927F928F929F92AF92BF92CF92DF9202
:10063000EF92FF920F931F93CF93DF93CDB7CA1B17
:10064000CDBFDD2709942A88398848885F846E8465
:100650007D848C849B84AA84B984C884DF80EE80E6
:10066000FD800C811B81AA81D981CE0FCDBFCA2FFD
:100670000895AA1BBB1B51E107C0AA1FBB1FA617E9
:10068000B70710F0A61BB70B881F991F5A95A9F73B
:1006900080959095BC01CD010895DF93CF939F92F3
:1006A000A0E49A2E0024D001E001F00116950795F0
:1006B000F794E794D794C794B794A79448F4106834
:1006C000A20FB31FC41FD51FE61FF71F081E191E58
:1006D000220F331F441F551F661F771F881F991F46
:1006E0009A9421F79D01AE01BF01C00111249F9092
:0A06F000CF91DF910895F894FFCF39
:1006FA00030002000100FC006000DA00F20066005C
:10070A00B600BE00E000FE00F600EE003E009C00CF
:06071A007A009E008E0033
:00000001FF
