:1000000012C02AC029C028C0F5C026C025C024C0FF
:1000100023C022C021C020C01FC01EC01DC01CC0E4
:100020001BC01AC019C011241FBECFEDCDBF10E0F8
:10003000A0E6B0E0EEE8F7E002C005900D92A63829
:10004000B107D9F720E0A6E8B0E001C01D92A839B9
:10005000B207E1F7EFD299C3D3CFA4E0B0E0E2E377
:10006000F0E040C369837A838B839C8389819A8182
:10007000AB81BC8181709927AA27BB27892B8A2B4A
:100080008B2B51F082E390E022E330E0F9012081F4
:100090002F7EFC01208309C082E390E022E330E060
:1000A000F90120812061FC0120832496E2E031C324
:1000B000A0E0B0E0EDE5F0E015C387E390E027E3D2
:1000C00030E0F90120812D7FFC01208387E390E05F
:1000D00027E330E0F90120812B7FFC01208387E3B7
:1000E00090E027E330E0F9012081277FFC012083A5
:1000F00087E390E027E330E0F90120812F7EFC01C7
:10010000208381E390E021E330E0F9012081216048
:10011000FC01208381E390E021E330E0F9012081BC
:100120002260FC01208381E390E021E330E0F901CB
:1001300020812460FC01208381E390E021E330E012
:10014000F90120812860FC01208381E390E021E314
:1001500030E0F90120812062FC01208381E390E0FE
:1001600021E330E0F90120812061FC01208382E35A
:1001700090E022E330E0F9012081622F4091840079
:100180005091850021E030E002C0220F331F4A95D4
:10019000E2F7262BFC01208382E390E022E330E0AB
:1001A000F9012081622F409180005091810021E06F
:1001B00030E002C0220F331F4A95E2F72095262334
:1001C000FC01208382E390E022E330E0F90120810A
:1001D000622F409182005091830021E030E002C004
:1001E000220F331F4A95E2F720952623FC01208336
:1001F000E2E08FC21F920F9200905F000F921124D5
:100200002F933F938F939F93AF93BF93EF93FF935E
:10021000CF93DF93CDB7DD2780919000909191002F
:10022000A0919200B09193000196A11DB11D809301
:10023000900090939100A0939200B09393008091CE
:10024000900090919100A0919200B09193008170E4
:100250009927AA27BB27892B8A2B8B2B99F480916E
:10026000940090919500A0919600B091970001960E
:10027000A11DB11D8093940090939500A0939600CA
:10028000B09397008091940090919500A091960072
:10029000B091970080389145A140B10544F010928B
:1002A0009400109295001092960010929700809101
:1002B000900090919100A0919200B0919300817074
:1002C0009927AA27BB27892B8A2B8B2B51F082E3F6
:1002D00090E022E330E0F90120812F7DFC012083B2
:1002E00009C082E390E022E330E0F901208120623E
:1002F000FC012083DF91CF91FF91EF91BF91AF91EE
:100300009F918F913F912F910F9000925F000F90DE
:100310001F901895A4E2B0E0EFE8F1E0E1C1988702
:100320008F838091940090919500A0919600B09158
:1003300097002CE330E040E050E0BC01CD01A6D1B5
:10034000DA01C9019A83898389819A812CE330E09B
:10035000B90189D19C838B8389819A812CE330E018
:10036000B90181D1CB019E838D838F8198858C01CA
:100370000A5F1F4F8091940090919500A091960084
:10038000B09197002AE030E040E050E0BC01CD01A0
:100390007DD1DC01CB01F801918380838F81988529
:1003A0008C010C5F1F4F8091940090919500A0915B
:1003B0009600B09197002CE330E040E050E0BC01A3
:1003C000CD0164D1DC01CB012AE030E040E050E017
:1003D000BC01CD015BD1DA01C9012AE030E040E087
:1003E00050E0BC01CD0152D1DC01CB01F801918379
:1003F00080838F8198859C012E5F3F4F8B819C81EC
:100400004AE050E0BA012FD1F901918380838B81BA
:100410009C812AE030E0B90126D1CB019C018F817B
:100420009885FC0131832083A496E4E070C1A8E0A4
:10043000B0E0ECE1F2E056C198878F838F81988518
:10044000880F991F805A9F4FFC01808191819C8366
:100450008B83F8941A8219826CC08B819C81817085
:1004600099279E838D838B819C81959587959C830D
:100470008B838D819E81892BB1F082E390E022E312
:1004800030E0F9012081622F409186005091870071
:1004900021E030E002C0220F331F4A95E2F7262BFD
:1004A000FC01208316C082E390E022E330E0F901F2
:1004B0002081622F409186005091870021E030E03A
:1004C00002C0220F331F4A95E2F720952623FC0134
:1004D000208382E390E022E330E0F9012081622F63
:1004E000409180005091810021E030E002C0220F55
:1004F000331F4A95E2F7262BFC01208382E390E02C
:1005000022E330E0F9012081622F40918000509178
:10051000810021E030E002C0220F331F4A95E2F74C
:1005200020952623FC01208389819A8101969A8354
:10053000898389819A8108970CF48FCF78942896C3
:10054000E2E0E7C0A4E0B0E0E7EAF2E0CBC09C83E1
:100550008B8382E390E022E330E0F9012081622F77
:10056000409182005091830021E030E002C0220FD0
:10057000331F4A95E2F720952623FC0120831A8237
:10058000198211C089819A81880F991F2B813C8122
:10059000820F931FFC018081918149DF89819A81BB
:1005A00001969A83898389819A81049758F382E31B
:1005B00090E022E330E0F9012081622F4091820037
:1005C0005091830021E030E002C0220F331F4A9592
:1005D000E2F7262BFC0120832496E2E09AC0A0E0FB
:1005E000B0E0E4EFF2E07EC0F8948AE490E022E12B
:1005F0003AE7FC01318320838EE490E02EE430E082
:10060000F90120812860FC01208389E590E029E53B
:1006100030E0F90120812064FC0120838EE490E029
:100620002EE430E0F90120812460FC0120837894DD
:10063000E2E06FC0A0E0B0E0EFE1F3E053C038DDEE
:10064000CEDF88E890E066DE88E890E07BDF80918E
:10065000900090919100A0919200B0919300BC0104
:10066000CD01FBDCEECF97FB072E16F4009406D0ED
:1006700077FD08D054D007FC05D03EF490958195C5
:100680009F4F0895709561957F4F0895052E97FBB4
:1006900016F400940FD057FD05D055D007FC02D0BA
:1006A00046F408C050954095309521953F4F4F4FE7
:1006B0005F4F089590958095709561957F4F8F4F0E
:1006C0009F4F08952F923F924F925F926F927F9229
:1006D0008F929F92AF92BF92CF92DF92EF92FF9252
:1006E0000F931F93CF93DF93CDB7CA1BCDBFDD27E9
:1006F00009942A88398848885F846E847D848C8434
:100700009B84AA84B984C884DF80EE80FD800C813C
:100710001B81AA81D981CE0FCDBFCA2F0895AA1BF4
:10072000BB1B51E107C0AA1FBB1FA617B70710F0DC
:10073000A61BB70B881F991F5A95A9F7809590950E
:10074000BC01CD010895A1E21A2EAA1BBB1BFD011D
:100750000DC0AA1FBB1FEE1FFF1FA217B307E407A0
:10076000F50720F0A21BB30BE40BF50B661F771FF8
:10077000881F991F1A9469F76095709580959095D8
:0E0780009B01AC01BD01CF010895F894FFCF9D
:10078E00FC006000DA00F2006600B600BE00E00079
:10079E00FE00F600EE003E009C007A009E008E00E9
:0607AE000100020003003F
:00000001FF
