:1000000012C02AC029C028C009C126C025C024C0EA
:1000100023C022C021C020C01FC01EC01DC01CC0E4
:100020001BC01AC019C011241FBECFEDCDBF10E0F8
:10003000A0E6B0E0EAEAF7E002C005900D92A6382B
:10004000B107D9F720E0A6E8B0E001C01D92AA39B7
:10005000B207E1F78BD2A7C3D3CFA2E0B0E0E2E3CF
:10006000F0E04EC39A838983000089819A819C01C4
:10007000215031093A832983892BB9F72296E2E08E
:1000800056C3A4E0B0E0E6E4F0E03AC369837A83C3
:100090008B839C8389819A81AB81BC8181709927F4
:1000A000AA27BB27892B8A2B8B2B51F082E390E068
:1000B00022E330E0F90120812F7EFC01208309C07A
:1000C00082E390E022E330E0F90120812061FC012D
:1000D00020832496E2E02BC3A0E0B0E0E1E7F0E06B
:1000E0000FC387E390E027E330E0F90120812D7F03
:1000F000FC01208387E390E027E330E0F9012081D1
:100100002B7FFC01208387E390E027E330E0F901B7
:100110002081277FFC01208387E390E027E330E004
:10012000F90120812F7EFC01208381E390E021E30F
:1001300030E0F90120812160FC01208381E390E01F
:1001400021E330E0F90120812260FC01208381E37A
:1001500090E021E330E0F90120812460FC0120835C
:1001600081E390E021E330E0F90120812860FC0187
:10017000208381E390E021E330E0F90120812062D7
:10018000FC01208381E390E021E330E0F90120814C
:100190002061FC01208382E390E022E330E0F9015A
:1001A0002081622F409184005091850021E030E051
:1001B00002C0220F331F4A95E2F7262BFC01208351
:1001C00082E390E022E330E0F9012081622F409148
:1001D00080005091810021E030E002C0220F331FE7
:1001E0004A95E2F720952623FC01208382E390E0E4
:1001F00022E330E0F9012081622F4091820050918A
:10020000830021E030E002C0220F331F4A95E2F75D
:1002100020952623FC012083E2E089C21F920F92E1
:1002200000905F000F9211242F933F938F939F9321
:10023000EF93FF93CF93DF93CDB7DD2780919800A5
:1002400090919900892B51F082E390E022E330E015
:10025000F90120812062FC01208309C082E390E043
:1002600022E330E0F90120812F7DFC012083809181
:1002700098009091990021E0892B09F020E0822FCD
:1002800090E09093990080939800DF91CF91FF9137
:10029000EF919F918F913F912F910F9000925F006E
:1002A0000F901F901895A4E2B0E0E8E5F1E026C2B7
:1002B00098878F838091940090919500A0919600EB
:1002C000B09197002CE330E040E050E0BC01CD015C
:1002D000EBD1DA01C9019A83898389819A812CE360
:1002E00030E0B901CED19C838B8389819A812CE344
:1002F00030E0B901C6D1CB019E838D838F81988573
:100300008C010A5F1F4F8091940090919500A091FD
:100310009600B09197002AE030E040E050E0BC0148
:10032000CD01C2D1DC01CB01F801918380838F81A3
:1003300098858C010C5F1F4F8091940090919500DF
:10034000A0919600B09197002CE330E040E050E09F
:10035000BC01CD01A9D1DC01CB012AE030E040E0B5
:1003600050E0BC01CD01A0D1DA01C9012AE030E0A2
:1003700040E050E0BC01CD0197D1DC01CB01F80198
:10038000918380838F8198859C012E5F3F4F8B8165
:100390009C814AE050E0BA0174D1F90191838083D5
:1003A0008B819C812AE030E0B9016BD1CB019C01AB
:1003B0008F819885FC0131832083A496E4E0B5C148
:1003C000A8E0B0E0E5EEF1E09BC198878F838F81D4
:1003D0009885880F991F805A9F4FFC0180819181D9
:1003E0009C838B831A8219826CC08B819C81817063
:1003F00099279E838D838B819C81959587959C837E
:100400008B838D819E81892BB1F082E390E022E382
:1004100030E0F9012081622F4091860050918700E1
:1004200021E030E002C0220F331F4A95E2F7262B6D
:10043000FC01208316C082E390E022E330E0F90162
:100440002081622F409186005091870021E030E0AA
:1004500002C0220F331F4A95E2F720952623FC01A4
:10046000208382E390E022E330E0F9012081622FD3
:10047000409180005091810021E030E002C0220FC5
:10048000331F4A95E2F7262BFC01208382E390E09C
:1004900022E330E0F9012081622F409180005091E9
:1004A000810021E030E002C0220F331F4A95E2F7BD
:1004B00020952623FC01208389819A8101969A83C5
:1004C000898389819A8108970CF48FCF2896E2E07E
:1004D0002EC1A4E0B0E0EEE6F2E012C19C838B8373
:1004E00082E390E022E330E0F9012081622F409125
:1004F00082005091830021E030E002C0220F331FC0
:100500004A95E2F720952623FC0120831A8219825E
:1005100011C089819A81880F991F2B813C81820F9C
:10052000931FFC01808191814BDF89819A81019623
:100530009A83898389819A81049758F382E390E0B2
:1005400022E330E0F9012081622F40918200509136
:10055000830021E030E002C0220F331F4A95E2F70A
:10056000262BFC0120832496E2E0E1C0A2E0B0E06B
:10057000EBEBF2E0C5C0B0DD10928900109288006C
:1005800089E090E090938B0080938A0086E090E071
:1005900090938F0080938E0090938D0080938C00B9
:1005A00088E890E096DF8091900090919100A09172
:1005B0009200B09193000196A11DB11D809390000F
:1005C00090939100A0939200B0939300809190003B
:1005D00090919100A0919200B09193008170992721
:1005E000AA27BB27892B8A2B8B2B99F48091940007
:1005F00090919500A0919600B09197000196A11D51
:10060000B11D8093940090939500A0939600B093B1
:1006100097008091940090919500A0919600B091E0
:10062000970080389145A140B10544F010929400A4
:1006300010929500109296001092970088E890E032
:1006400032DE88E890E045DF809190009091910043
:10065000A0919200B0919300BC01CD0112DD1A82ED
:10066000198208C08FEF90E0F8DC89819A810196A9
:100670009A83898389819A818F3F910599F390F3B9
:1006800092CF97FB072E16F4009406D077FD08D082
:1006900054D007FC05D03EF4909581959F4F089566
:1006A000709561957F4F0895052E97FB16F4009481
:1006B0000FD057FD05D055D007FC02D046F408C036
:1006C00050954095309521953F4F4F4F5F4F08957E
:1006D00090958095709561957F4F8F4F9F4F0895AE
:1006E0002F923F924F925F926F927F928F929F9242
:1006F000AF92BF92CF92DF92EF92FF920F931F9330
:10070000CF93DF93CDB7CA1BCDBFDD2709942A88CD
:10071000398848885F846E847D848C849B84AA8415
:10072000B984C884DF80EE80FD800C811B81AA81A2
:10073000D981CE0FCDBFCA2F0895AA1BBB1B51E193
:1007400007C0AA1FBB1FA617B70710F0A61BB70B41
:10075000881F991F5A95A9F780959095BC01CD01E6
:100760000895A1E21A2EAA1BBB1BFD010DC0AA1FF2
:10077000BB1FEE1FFF1FA217B307E407F50720F00A
:10078000A21BB30BE40BF50B661F771F881F991F85
:100790001A9469F760957095809590959B01AC01CE
:0A07A000BD01CF010895F894FFCFCA
:1007AA00FC006000DA00F2006600B600BE00E0005D
:1007BA00FE00F600EE003E009C007A009E008E00CD
:0607CA0001000200030023
:00000001FF
