:1000000012C02AC029C028C060C026C025C024C094
:1000100023C022C021C020C01FC01EC01DC01CC0E4
:100020001BC01AC019C011241FBECFEDCDBF10E0F8
:10003000A0E6B0E0E2E1F5E002C005900D92A6383E
:10004000B107D9F720E0A6E8B0E001C01D92AC39B5
:10005000B207E1F7A2D15BC2D3CF60FF03C094988F
:1000600095980895949A959A0895B998BA98BB98D6
:10007000BC98889A899A8A9A8B9A8D9A8C9A42B35C
:1000800081E090E09C010090600002C0220F331FCD
:100090000A94E2F7242B22BB32B3AC010090640037
:1000A00002C0440F551F0A94E2F7242F2095232302
:1000B00022BB22B30090620002C0880F991F0A94ED
:1000C000E2F78095822382BB08951F920F920FB6AC
:1000D0000F9211242F938F939F93AF93BF9380918F
:1000E000900090919100A0919200B09193000196A0
:1000F000A11DB11D8093900090939100A093920058
:10010000B09393008091900090919100A091920003
:10011000B091930080FD13C080918C0090918D0070
:10012000A0918E00B0918F000196A11DB11D80930A
:100130008C0090938D00A0938E00B0938F008091DF
:100140008C0090918D00A0918E00B0918F0080382E
:100150009145A140B10544F010928C0010928D00A1
:1001600010928E0010928F00BF91AF919F918F914E
:100170002F910F900FBE0F901F9018958F929F9206
:10018000AF92BF92CF92DF92EF92FF920F931F93A5
:10019000CF93DF93EC0160918C0070918D00809182
:1001A0008E0090918F002CE3822E912CA12CB12CEB
:1001B000A50194015AD1C9016CE370E043D18C01CF
:1001C00060918C0070918D0080918E0090918F00D5
:1001D0003AE0C32ED12CE12CF12CA701960145D198
:1001E0007F836E8360918C0070918D0080918E0072
:1001F00090918F00A501940138D1A701960135D1C6
:10020000CA01B901A701960130D17D836C83C80171
:100210006AE070E017D19B838A8379836883DF91DA
:10022000CF911F910F91FF90EF90DF90CF90BF90F3
:10023000AF909F908F900895880F991FFC01EA5905
:10024000FF4F0190F081E02DF89428E030E081E04C
:1002500090E0AF0141705527F595E795452B59F092
:1002600062B3AC010090860002C0440F551F0A948F
:10027000E2F7462B0CC052B3BC010090860002C0CE
:10028000660F771F0A94E2F7462F4095452342BB3D
:1002900062B3AC010090640002C0440F551F0A9481
:1002A000E2F7462B42BB52B3BC010090640002C08F
:1002B000660F771F0A94E2F7462F4095452342BB0D
:1002C0002150310931F6789408950F931F93CF93FD
:1002D000DF938C0192B321E030E00090620002C015
:1002E000220F331F0A94E2F72095292322BBC0E096
:1002F000D0E0F801EC0FFD1F808191819DDF2296F7
:10030000C830D105B1F722B381E090E000906200DF
:1003100002C0880F991F0A94E2F7822B82BBDF91FB
:10032000CF911F910F910895F89482E19AE79BBDB8
:100330008ABD8EB588608EBD89B7806489BF8EB551
:1003400084608EBD7894089580918A0090918B008E
:100350001816190634F4019790938B0080938A0045
:1003600019C026B330E0209530952E713327809147
:100370008800909189002817390761F0309389002F
:10038000209388008CE090E090938B0080938A000B
:10039000C901089580E090E0089567DEC5DF84E933
:1003A00090E0ECDE84E990E090DF60919000709145
:1003B000910080919200909193004FDEC5DF8430D0
:1003C000910501F170F4029751F780918C009091A2
:1003D0008D00A0918E00B0918F000196A11DB11DDE
:1003E00028C088309105D1F04097C9F680918C00E3
:1003F00090918D00A0918E00B0918F00CC97A109B3
:10040000B10917C080918C0090918D00A0918E0051
:10041000B0918F000197A109B1090BC080918C00A8
:1004200090918D00A0918E00B0918F00CC96A11D6F
:10043000B11D80938C0090938D00A0938E00B0939B
:100440008F00ADCF97FB072E16F4009406D077FDF2
:1004500008D027D007FC05D03EF4909581959F4F9A
:100460000895709561957F4F0895052E97FB16F4BA
:1004700000940FD057FD05D028D007FC02D046F4D9
:1004800008C050954095309521953F4F4F4F5F4F95
:10049000089590958095709561957F4F8F4F9F4FF0
:1004A0000895AA1BBB1B51E107C0AA1FBB1FA617BB
:1004B000B70710F0A61BB70B881F991F5A95A9F70D
:1004C00080959095BC01CD010895A1E21A2EAA1B3A
:1004D000BB1BFD010DC0AA1FBB1FEE1FFF1FA217F4
:1004E000B307E407F50720F0A21BB30BE40BF50BF1
:1004F000661F771F881F991F1A9469F7609570957A
:10050000809590959B01AC01BD01CF010895F894B1
:02051000FFCF1B
:10051200030002000100FC006000DA00F200660045
:10052200B600BE00E000FE00F600EE003E009C00B9
:060532007A009E008E001D
:00000001FF
