:1000000012C02AC029C028C027C026C025C024C0CD
:1000100023C022C021C020C01FC01EC01DC01CC0E4
:100020001BC01AC019C011241FBECFEDCDBF10E0F8
:10003000A0E6B0E0EEE0F4E002C005900D92A63735
:10004000B107D9F720E0A6E7B0E001C01D92AC38B7
:10005000B207E1F768D0D9C1D3CFA4E0B0E0E2E3C2
:10006000F0E0B6C19C838B8313C08B819C81019788
:100070009C838B8388EC90E09A83898305C0898177
:100080009A8101979A83898389819A81892BB9F70B
:100090008B819C81892B49F72496E2E0B0C1A6E0D0
:1000A000B0E0E4E5F0E094C19C838B837E836D83B4
:1000B0008091760090917700892B19F485E090E08B
:1000C00002C084E090E09A83898382E390E022E397
:1000D00030E0F9012081422F21E030E0098002C0A8
:1000E000220F331F0A94E2F7242BFC0120838B811B
:1000F0009C81B3DF82E390E022E330E0F9012081CC
:10010000422F21E030E0098002C0220F331F0A9401
:10011000E2F720952423FC0120838D819E819DDFC1
:100120002696E2E06CC1A4E0B0E0E8E9F0E050C15E
:1001300081E390E021E330E0F90120812160FC01BE
:10014000208381E390E021E330E0F9012081226007
:10015000FC01208381E390E021E330E0F90120817C
:100160002460FC01208381E390E021E330E0F90189
:1001700020812860FC01208381E390E021E330E0CE
:10018000F90120812062FC01208381E390E021E3DA
:1001900030E0F90120812061FC01208382E390E0BE
:1001A00022E330E0F9012081622F409164005091F8
:1001B000650021E030E002C0220F331F4A95E2F7CC
:1001C000262BFC01208382E390E022E330E0F9015A
:1001D0002081622F409160005091610021E030E069
:1001E00002C0220F331F4A95E2F720952623FC0117
:1001F000208382E390E022E330E0F9012081622F46
:10020000409162005091630021E030E002C0220F73
:10021000331F4A95E2F720952623FC01208362E3F1
:1002200070E082E390E03BDF82E390E022E330E0A5
:10023000F9012081622F409162005091630021E01A
:1002400030E002C0220F331F4A95E2F720952623A3
:10025000FC0120838091760090917700892B19F022
:1002600086E690E002C08AE790E09C838B831A8246
:1002700019826CC089819A81880F991F2B813C81DA
:10028000820F931FFC0180819181892BB1F082E361
:1002900090E022E330E0F9012081622F4091780064
:1002A0005091790021E030E002C0220F331F4A95BF
:1002B000E2F7262BFC01208316C082E390E022E3C4
:1002C00030E0F9012081622F40917800509179004F
:1002D00021E030E002C0220F331F4A95E2F720955B
:1002E0002623FC01208382E390E022E330E0F90141
:1002F0002081622F409160005091610021E030E048
:1003000002C0220F331F4A95E2F7262BFC012083FF
:1003100081E090E0A2DE82E390E022E330E0F901A8
:100320002081622F409160005091610021E030E017
:1003300002C0220F331F4A95E2F720952623FC01C5
:10034000208389819A8101969A83898389819A8100
:1003500008970CF48FCF82E390E022E330E0F901BC
:100360002081622F409162005091630021E030E0D3
:1003700002C0220F331F4A95E2F7262BFC0120838F
:1003800080918A0090918B00019690938B008093CE
:100390008A00809176009091770021E0892B09F006
:1003A00020E0822F90E0909377008093760037CF03
:1003B0002F923F924F925F926F927F928F929F9275
:1003C000AF92BF92CF92DF92EF92FF920F931F9363
:1003D000CF93DF93CDB7CA1BCDBFDD2709942A8801
:1003E000398848885F846E847D848C849B84AA8449
:1003F000B984C884DF80EE80FD800C811B81AA81D6
:0E040000D981CE0FCDBFCA2F0895F894FFCF3B
:10040E0001000200030001000100010001000100D3
:06041E00010001000100D5
:00000001FF
