:1000000012C02AC029C028C027C026C025C024C0CD
:1000100023C022C021C020C01FC01EC01DC01CC0E4
:100020001BC01AC019C011241FBECFEDCDBF10E0F8
:10003000A0E6B0E0E0E2F4E002C005900D92A63840
:10004000B107D9F720E0A6E8B0E001C01D92AC38B6
:10005000B207E1F768D0E2C1D3CFA4E0B0E0E2E3B9
:10006000F0E0BFC19C838B8313C08B819C8101977F
:100070009C838B8388EC90E09A83898305C0898177
:100080009A8101979A83898389819A81892BB9F70B
:100090008B819C81892B49F72496E2E0B9C1A6E0C7
:1000A000B0E0E4E5F0E09DC19C838B837E836D83AB
:1000B0008091860090918700892B19F485E090E06B
:1000C00002C084E090E09A83898382E390E022E397
:1000D00030E0F9012081422F21E030E0098002C0A8
:1000E000220F331F0A94E2F7242BFC0120838B811B
:1000F0009C81B3DF82E390E022E330E0F9012081CC
:10010000422F21E030E0098002C0220F331F0A9401
:10011000E2F720952423FC0120838D819E819DDFC1
:100120002696E2E075C1A8E0B0E0E8E9F0E059C148
:1001300081E390E021E330E0F90120812160FC01BE
:10014000208381E390E021E330E0F9012081226007
:10015000FC01208381E390E021E330E0F90120817C
:100160002460FC01208381E390E021E330E0F90189
:1001700020812860FC01208381E390E021E330E0CE
:10018000F90120812062FC01208381E390E021E3DA
:1001900030E0F90120812061FC01208382E390E0BE
:1001A00022E330E0F9012081622F409184005091D8
:1001B000850021E030E002C0220F331F4A95E2F7AC
:1001C000262BFC01208382E390E022E330E0F9015A
:1001D0002081622F409180005091810021E030E029
:1001E00002C0220F331F4A95E2F720952623FC0117
:1001F000208382E390E022E330E0F9012081622F46
:10020000409182005091830021E030E002C0220F33
:10021000331F4A95E2F720952623FC01208368ECE2
:1002200070E088EC90E03BDF80918A0090918B0039
:100230008F7099279E838D838D819E81880F991F52
:10024000805A9F4FFC01808191819C838B8382E344
:1002500090E022E330E0F9012081622F409182009A
:100260005091830021E030E002C0220F331F4A95F5
:10027000E2F720952623FC0120831A8219826FC0A1
:100280008B819C818170992798878F838B819C813A
:10029000959587959C838B838F819885892BB1F069
:1002A00082E390E022E330E0F9012081622F409167
:1002B00088005091890021E030E002C0220F331FF6
:1002C0004A95E2F7262BFC01208316C082E390E0DA
:1002D00022E330E0F9012081622F409188005091A3
:1002E000890021E030E002C0220F331F4A95E2F777
:1002F00020952623FC01208382E390E022E330E076
:10030000F9012081622F409180005091810021E00D
:1003100030E002C0220F331F4A95E2F7262BFC0182
:10032000208381E090E099DE82E390E022E330E0F8
:10033000F9012081622F409180005091810021E0DD
:1003400030E002C0220F331F4A95E2F720952623A2
:10035000FC01208389819A8101969A83898389810E
:100360009A8108970CF48CCF82E390E022E330E08E
:10037000F9012081622F409182005091830021E099
:1003800030E002C0220F331F4A95E2F7262BFC0112
:10039000208380918A0090918B00019690938B002E
:1003A00080938A00809186009091870021E0892BBC
:1003B00009F020E0822F90E09093870080938600E0
:1003C0002ECF2F923F924F925F926F927F928F9299
:1003D0009F92AF92BF92CF92DF92EF92FF920F93D4
:1003E0001F93CF93DF93CDB7CA1BCDBFDD270994F1
:1003F0002A88398848885F846E847D848C849B84B5
:10040000AA84B984C884DF80EE80FD800C811B81C2
:10041000AA81D981CE0FCDBFCA2F0895F894FFCFFE
:10042000FC006000DA00F2006600B600BE00E000EA
:10043000FE00F600EE003E009C007A009E008E005A
:06044000010002000300B0
:00000001FF
