:100000000EC013C012C011C010C00FC00EC00DC072
:100010000CC00BC00AC009C008C007C006C011242C
:100020001FBECFEDCDBF72D0DCC0EACFA6E0B0E0FE
:10003000EBE1F0E0B9C06B837C838D839E8319C0B4
:100040008B819C81AD81BE810197A109B1098B8310
:100050009C83AD83BE8388EC90E09A83898305C03E
:1000600089819A8101979A83898389819A81892BD1
:10007000B9F78B819C81AD81BE81892B8A2B8B2B1B
:10008000F9F62696E2E0A7C0A4E0B0E0E9E4F0E0EB
:100090008BC09A8389837C836B8388E390E028E319
:1000A00030E0F9012081277FFC01208388E390E084
:1000B00028E330E0F90120812061FC01208389815F
:1000C0009A81092E000CAA0BBB0BBC01CD01AEDF3F
:1000D00088E390E028E330E0F90120812860FC010A
:1000E000208388E390E028E330E0F90120812F7E2F
:1000F000FC0120838B819C81092E000CAA0BBB0B79
:10010000BC01CD0193DF2496E2E065C0A4E0B0E03D
:10011000EBE8F0E049C087E390E027E330E0F90145
:1001200020812061FC01208387E390E027E330E019
:10013000F90120812860FC01208383E090E0A0E0A9
:10014000B0E089839A83AB83BC8310C068EC70E015
:1001500088EC90E099DF89819A81AB81BC8101971D
:10016000A109B10989839A83AB83BC8389819A8170
:10017000AB81BC81892B8A2B8B2B41F760E971E025
:1001800080E090E053DFD0CF2F923F924F925F926A
:100190006F927F928F929F92AF92BF92CF92DF9297
:1001A000EF92FF920F931F93CF93DF93CDB7CA1BAC
:1001B000CDBFDD2709942A88398848885F846E84FA
:1001C0007D848C849B84AA84B984C884DF80EE807B
:1001D000FD800C811B81AA81D981CE0FCDBFCA2F92
:0601E0000895F894FFCF22
:00000001FF
