:1000000012C02CC02BC02AC029C028C083C026C063
:1000100025C024C023C022C021C020C01FC01EC0D4
:100020001DC01CC01BC011241FBECFE5D4E0DEBF25
:10003000CDBF10E0A0E6B0E0EEEFF9E002C0059021
:100040000D92A038B107D9F720E0A0E8B0E001C0D8
:100050001D92A23AB207E1F78DD3CFC4D1CFA2E06F
:10006000B0E0E4E3F0E06CC49A8389830000898106
:100070009A819C01215031093A832983892BB9F750
:100080002296E2E079C4A6E0B0E0E8E4F0E058C4EB
:100090009E838D838FEF90E09C838B8385E390E03C
:1000A000FC01108282E390E02FEFFC01208381E3CA
:1000B00090E021E0FC01208382E390E02EEFFC0140
:1000C00020831A82198211C080E390E0FC018081B4
:1000D000882F90E02B813C81822393239C838B8308
:1000E00089819A8101969A83898329813A818D81B8
:1000F0009E812817390740F382E390E0FC011082CB
:1001000081E390E02FEFFC0120838B819C81269678
:10011000E2E032C41F920F9200905F000F92112410
:100120002F933F934F935F936F937F938F939F93FF
:10013000AF93BF93EF93FF93CF93DF93CDB7DEB72A
:100140006697DEBFCDBF8091880090918900A09115
:100150008A00B0918B000196A11DB11D809388008B
:1001600090938900A0938A00B0938B0080918800BF
:1001700090918900A0918A00B0918B00817099279D
:10018000AA27BB27892B8A2B8B2B99F480918C0073
:1001900090918D00A0918E00B0918F000196A11DCD
:1001A000B11D80938C0090938D00A0938E00B0932E
:1001B0008F0080918C0090918D00A0918E00B09165
:1001C0008F0080389145A140B10544F010928C0019
:1001D00010928D0010928E0010928F0080918C00F2
:1001E00090918D00A0918E00B0918F002CE330E0B3
:1001F00040E050E0BC01CD0161D3DA01C9019A832E
:10020000898389819A812CE330E0B90144D39C83AE
:100210008B8389819A812CE330E0B9013CD3CB01F7
:100220009E838D838B819C812AE030E0B90133D39A
:10023000880F991F805A9F4FFC0180819181909374
:100240008700809386008B819C812AE030E0B90191
:1002500022D3CB01880F991F805A9F4FFC018081C8
:10026000918190938500809384008D819E812AE006
:1002700030E0B90110D3880F991F805A9F4FFC01BD
:100280008081918190938300809382008D819E81F3
:100290002AE030E0B901FFD2CB01880F991F805AC4
:1002A0009F4FFC0180819181909381008093800019
:1002B00066960FB6F894DEBF0FBECDBFDF91CF912B
:1002C000FF91EF91BF91AF919F918F917F916F912E
:1002D0005F914F913F912F910F9000925F000F908F
:1002E0001F901895A2E0B0E0E7E7F1E029C3809104
:1002F000A0009091A10081709927892B39F18091FC
:100300009A0090919B00019690939B0080939A0095
:1003100080919A0090919B000A9708F462C08091A6
:10032000A0009091A1008E7F9093A1008093A000E7
:1003300087E390E027E330E0F90120812D7FFC0185
:10034000208310929D0010929C004BC086E390E0A9
:10035000FC018081882F90E09A83898389819A812A
:1003600082709927892B49F080919C0090919D0083
:10037000019690939D0080939C0089819A81827060
:100380009927892B39F080919C0090919D00813FA5
:10039000910538F18091A0009091A1008160909327
:1003A000A1008093A00087E390E027E330E0F9010B
:1003B00020812260FC01208388E390E028E330E084
:1003C000F90120812260FC01208310929B00109291
:1003D0009A0080919C0090919D0090939F00809343
:1003E0009E0080919E0090919F002296E2E0C4C200
:1003F000A2E0B0E0EDEFF1E0A3C29A83898385E348
:1004000090E021E0FC01208382E390E020918000D5
:1004100030918100FC01208389819A8120DE82E372
:1004200090E0FC01108285E390E022E0FC01208353
:1004300082E390E02091820030918300FC012083D0
:1004400089819A810CDE82E390E0FC01108285E3D1
:1004500090E024E0FC01208382E390E0209184007E
:1004600030918500FC01208389819A81F8DD82E347
:1004700090E0FC01108285E390E028E0FC012083FD
:1004800082E390E02091860030918700FC01208378
:1004900089819A81E4DD82E390E0FC01108285E3AA
:1004A00090E020E1FC0120838091880090918900F8
:1004B000A0918A00B0918B0081709927AA27BB2751
:1004C000892B8A2B8B2B31F082E390E022E2FC0116
:1004D000208304C082E390E0FC01108289819A812C
:1004E0009C01ABEABAEA06D29695879596958795D0
:1004F000B6DD82E390E0FC01108285E390E0FC0130
:1005000010822296E2E038C2AEE0B0E0E9E8F2E024
:1005100017C29A87898789859A85B5DD95958795CC
:100520009595879595958795959587959C838B83CC
:1005300080919000909191002B813C812817390780
:1005400009F403C11A821982F5C089819A81880F42
:10055000991F8E569F4FFC01808191819E838D83D0
:1005600081E090E0098002C0880F991F0A94E2F7A9
:1005700098878F832B813C818F819885282339230D
:1005800040919000509191008F819885842395230C
:10059000281739070CF093C08D819E818130910519
:1005A00019F1823091051CF4892B49F088C0823002
:1005B000910509F445C0039709F456C080C08091A5
:1005C0008C0090918D00A0918E00B0918F00805F83
:1005D000914FAF4FBF4F80938C0090938D00A093AD
:1005E0008E00B0938F006BC080918C0090918D0035
:1005F000A0918E00B0918F0080519E40A109B10959
:1006000080938C0090938D00A0938E00B0938F0008
:1006100080918C0090918D00A0918E00B0918F0000
:10062000BB236CF480E793E4A1E0B0E080938C00FE
:1006300090938D00A0938E00B0938F0040C03FC078
:1006400080918C0090918D00A0918E00B0918F00D0
:10065000CC96A11DB11D80938C0090938D00A0932A
:100660008E00B0938F002BC080918C0090918D00F4
:10067000A0918E00B0918F00CC97A109B109809311
:100680008C0090938D00A0938E00B0938F0080918A
:100690008C0090918D00A0918E00B0918F00BB23B3
:1006A0006CF484E491E5A1E0B0E080938C00909339
:1006B0008D00A0938E00B0938F0000C00000809149
:1006C0008C0090918D00A0918E00B0918F008038A9
:1006D0009145A140B10544F010928C0010928D001C
:1006E00010928E0010928F0080918C0090918D005E
:1006F000A0918E00B0918F002CE330E040E050E0FC
:10070000BC01CD01DBD0DA01C9019C01AD018CE354
:1007100090E0DC01FBD0DC01CB0180938C00909356
:100720008D00A0938E00B0938F0089819A810196ED
:100730009A83898389819A8104970CF406CF8B81EF
:100740009C8190939100809390002E96E2E014C1DA
:10075000A4E0B0E0EDEAF3E0F3C09A8389837C8300
:100760006B8389819A8144DE8B819C81CDDE2496C6
:10077000E2E002C1A4E0B0E0EFEBF3E0E1C084E32B
:1007800090E024E330E0F90120812F61FC01208317
:1007900081E390E0FC01808181E390E02FEFFC0198
:1007A000208382E390E0FC011082809160009091B0
:1007B000610090938100809380008091620090910D
:1007C00063009093830080938200809164009091F5
:1007D00065009093850080938400809166009091DD
:1007E0006700909387008093860010929700109284
:1007F000960081E090E0909399008093980082E0C9
:1008000090E0909393008093920083E090E0909327
:100810009500809394008AE490E024ED30E3FC019D
:10082000318320838EE490E02EE430E0F9012081D2
:100830002860FC01208389E590E029E530E0F9019A
:1008400020812061FC0120838EE490E02EE430E0E2
:10085000F90120812460FC012083789443DD9C838E
:100860008B838B819C818E3B910558F428EC30E082
:100870008B819C81A901481B590BCA019A838983EA
:1008800004C08AE090E09A83898389819A816FE726
:1008900070E05EDFE3CF97FB072E16F4009406D0DE
:1008A00077FD08D074D007FC05D03EF49095819573
:1008B0009F4F0895709561957F4F0895052E97FB82
:1008C00016F400940FD057FD05D075D007FC02D068
:1008D00046F408C050954095309521953F4F4F4FB5
:1008E0005F4F089590958095709561957F4F8F4FDC
:1008F0009F4F0895A29FB001B39FC001A39F01D055
:10090000B29F700D811D1124911D0895F3DFA59FE5
:10091000900DB49F900DA49F800D911D11240895FA
:100920002F923F924F925F926F927F928F929F92FF
:10093000AF92BF92CF92DF92EF92FF920F931F93ED
:10094000CF93DF93CDB7DEB7CA1BDB0B0FB6F8949E
:10095000DEBF0FBECDBF09942A88398848885F84DE
:100960006E847D848C849B84AA84B984C884DF804F
:10097000EE80FD800C811B81AA81B981CE0FD11D33
:100980000FB6F894DEBF0FBECDBFED010895AA1BD0
:10099000BB1B51E107C0AA1FBB1FA617B70710F06A
:1009A000A61BB70B881F991F5A95A9F7809590959C
:1009B000BC01CD010895A1E21A2EAA1BBB1BFD01AB
:1009C0000DC0AA1FBB1FEE1FFF1FA217B307E4072E
:1009D000F50720F0A21BB30BE40BF50B661F771F86
:1009E000881F991F1A9469F7609570958095909566
:0E09F0009B01AC01BD01CF010895F894FFCF2B
:1009FE00FC00280075007900A900D900DD00680010
:100A0E00FD00F900ED009D00D4003D00D500C500AD
:00000001FF
