:100000000EC01BC01AC019C018C017C016C015C03A
:1000100014C013C012C011C010C00FC00EC01124F4
:100020001FBECFEDCDBF20E0A0E6B0E001C01D9225
:10003000A236B207E1F760D017C1E2CFA6E0B0E088
:10004000E3E2F0E0F4C06B837C838D839E8319C070
:100050008B819C81AD81BE810197A109B1098B8300
:100060009C83AD83BE8388EC90E09A83898305C02E
:1000700089819A8101979A83898389819A81892BC1
:10008000B9F78B819C81AD81BE81892B8A2B8B2B0B
:10009000F9F62696E2E0E2C0A4E0B0E0E1E5F0E0A7
:1000A000C6C09A8389837C836B8388E390E028E3CE
:1000B00030E0F90120812860FC01208389819A8148
:1000C000092E000CAA0BBB0BBC01CD01B7DF88E3E6
:1000D00090E028E330E0F9012081277FFC012083B4
:1000E0008B819C81092E000CAA0BBB0BBC01CD019E
:1000F000A5DF2496E2E0B2C0ACE0B0E0E1E8F0E0D9
:1001000096C087E390E027E330E0F9012081286082
:10011000FC0120838091600090916100817099279B
:10012000892B09F189859A8501969A87898789851E
:100130009A850A9708F464C08091600090916100EC
:100140008E7F909361008093600087E390E027E3C7
:1001500030E0F90120812F7EFC0120831D821E8268
:100160001F8218864DC086E390E0FC018081882FB5
:1001700090E09C878B878B859C8580719927892B44
:1001800059F08D819E81AF81B8850196A11DB11D69
:100190008D839E83AF83B8878B859C8580719927DB
:1001A000892B49F08D819E81AF81B8858136994038
:1001B000A105B10528F180916000909161008160F6
:1001C000909361008093600087E390E027E330E044
:1001D000F90120812061FC01208388E390E028E37D
:1001E00030E0F90120812061FC0120831A86198604
:1001F0008D819E81AF81B88589839A83AB83BC83CF
:1002000029813A8189819A81B90146DF83CF2F9272
:100210003F924F925F926F927F928F929F92AF9296
:10022000BF92CF92DF92EF92FF920F931F93CF93E3
:10023000DF93CDB7CA1BCDBFDD2709942A88398843
:1002400048885F846E847D848C849B84AA84B9846E
:10025000C884DF80EE80FD800C811B81AA81D9815A
:0C026000CE0FCDBFCA2F0895F894FFCF39
:00000001FF
