:1000000012C02CC02BC02AC029C028C078C026C06E
:1000100025C024C023C022C021C020C01FC01EC0D4
:100020001DC01CC01BC011241FBECFE5D4E0DEBF25
:10003000CDBF10E0A0E6B0E0E8E0F6E002C0059039
:100040000D92A038B107D9F710E0A0E8B0E001C0E8
:100050001D92AE39B107E1F7F5D1D5C2D1CFA2E0FB
:10006000B0E0E4E3F0E086C29A83898389819A81D3
:1000700001979A83898389819A812FEF8F3F920715
:10008000A9F7E2E0229692C2A6E0B0E0E9E4F0E04F
:1000900071C29E838D838FEF90E09A838983E5E31D
:1000A000F0E01082E2E3F0E08FEF8083E1E3F0E044
:1000B00010821C821B8210C0E0E3F0E08081282FB8
:1000C000332789819A81822393239A8389838B8121
:1000D0009C8101969C838B832B813C818D819E81A9
:1000E0002817390748F3E2E3F0E01082E1E3F0E09B
:1000F0008FEF808389819A81E2E0269657C21F9212
:100100000F920FB60F9211242F933F934F935F934B
:100110006F937F938F939F93AF93BF93EF93FF93CF
:10012000CF93DF93CDB7DEB780918800909189009F
:10013000A0918A00B0918B000196A11DB11D809302
:10014000880090938900A0938A00B0938B008091DF
:10015000880090918900A0918A00B0918B002AE0DC
:1001600030E040E050E0BC01CD01D9D1DC01CB0151
:10017000880F991FFC01E05AFF4F808191818D7F8C
:100180009093870080938600DF91CF91FF91EF914C
:10019000BF91AF919F918F917F916F915F914F919F
:1001A0003F912F910F900FBE0F901F901895A2E0D6
:1001B000B0E0ECEDF0E0DEC19A838983E5E3F0E0A6
:1001C00081E28083E2E3F0E0809180009091810001
:1001D000808389819A8143DFE5E3F0E082E28083D6
:1001E000E2E3F0E080918200909183008083898136
:1001F0009A8135DFE5E3F0E084E28083E2E3F0E03A
:100200008091840090918500808389819A8127DF85
:10021000E5E3F0E088E28083E2E3F0E080918600AD
:1002200090918700808389819A8119DFE2E022968C
:10023000BDC1AEE0B0E0EEE1F1E09CC19E878D87EC
:100240008D859E8521DF95958795959587959595C3
:100250008795959587959C878B8720918C00309109
:100260008D008B859C858217930709F4D6C01A866A
:10027000198671C089859A85880F991FFC01EA56F5
:10028000FF4F8081918198878F8381E090E009847E
:1002900002C0880F991F0A94E2F79E838D832B85F5
:1002A0003C858D819E81A9014823592320918C0092
:1002B00030918D008D819E818223932348175907A9
:1002C0000CF044C029853A85C901880F991FFC01AB
:1002D000E257FF4F80819181AC014F5F5F4FC901B1
:1002E000880F991FFC01E257FF4F51834083898596
:1002F0009A85880F991FFC01E257FF4F80819181F9
:10030000803191054CF089859A85880F991FFC01F1
:10031000E257FF4F118210824F81588589859A8557
:10032000880F991FFC01E257FF4F80819181880F50
:10033000991FFC01E05AFF4F20813181CA01880FCB
:10034000991FFC01E058FF4F3183208389859A85EE
:1003500001969A87898789859A85843091050CF45E
:1003600089CF1A8619864DC081E090E0098402C0C9
:10037000880F991F0A94E2F79C838B8389859A855D
:10038000880F991FFC01EA56FF4F808191819A8363
:1003900089832B853C858B819C81822393230097C5
:1003A000B1F049815A8189819A81880F991FFC0196
:1003B000E058FF4F808191819C012260CA01880F23
:1003C000991FFC01E058FF4F3183208315C04981FC
:1003D0005A8189819A81880F991FFC01E058FF4F4B
:1003E000808191819C012D7FCA01880F991FFC019A
:1003F000E058FF4F3183208389859A8501969A873B
:10040000898789859A85843091050CF4ADCF8B85D9
:100410009C8590938D0080938C00E2E02E96C6C060
:10042000A4E0B0E0E5E1F2E0A5C09A8389837C8393
:100430006B8389819A81BBDE8B819C81FADEE2E04D
:100440002496B4C0CFE5D4E0DEBFCDBFA4E3B0E0D6
:10045000E4E3F0E080818F628C93E1E3F0E080815F
:10046000E1E3F0E08FEF8083E2E3F0E0108280913F
:100470006000909161009093810080938000809152
:10048000620090916300909383008093820080913A
:100490006400909165009093850080938400809122
:1004A0006600909167009093870080938600109279
:1004B0009B0010929A0081E090E090939D008093C1
:1004C0009C0082E090E0909397008093960083E0F8
:1004D00090E09093990080939800EAE4F0E088EA35
:1004E00091E691838083AEE4B0E0EEE4F0E08081B9
:1004F00088608C93A9E5B0E0E9E5F0E08081806157
:100500008C93AEE4B0E0EEE4F0E0808184608C9304
:1005100078946FE770E088EC90E082DFFACF97FB89
:10052000092E05260ED057FD04D04BD00AD0001C52
:1005300038F450954095309521953F4F4F4F5F4F80
:100540000895F6F790958095709561957F4F8F4F40
:100550009F4F08952F923F924F925F926F927F929A
:100560008F929F92AF92BF92CF92DF92EF92FF92C3
:100570000F931F93CF93DF93CDB7DEB7CA1BDB0B6F
:100580000FB6F894DEBF0FBECDBF09942A88398814
:1005900048885F846E847D848C849B84AA84B9841B
:1005A000C884DF80EE80FD800C811B81AA81B98127
:1005B000CE0FD11D0FB6F894DEBF0FBECDBFED013B
:1005C0000895A1E21A2EAA1BBB1BFD010DC0AA1F94
:1005D000BB1FEE1FFF1FA217B307E407F50720F0AC
:1005E000A21BB30BE40BF50B661F771F881F991F27
:1005F0001A9469F760957095809590959B01AC0170
:08060000BD01CF010895FFCFF9
:10060800FC00280075007900A900D900DD00680009
:10061800FD00F900ED009D00D4003D00D500C500A7
:00000001FF
