:100000000C942A000C9447000C9447000C94470071
:100010000C9447000C9447000C9447000C94470044
:100020000C9447000C9447000C9447000C94470034
:100030000C9447000C9447000C9447000C94470024
:100040000C9447000C9447000C9447000C94470014
:100050000C94470011241FBECFE5D4E0DEBFCDBF16
:1000600010E0A0E6B0E0EEEFF4E002C005900D92E3
:10007000A038B107D9F710E0A0E8B0E001C01D92A8
:10008000AA39B107E1F70E94F5010C947E020C94A5
:100090000000A2E0B0E0EFE4F0E00C9457029A8395
:1000A000898389819A8101979A83898389819A8139
:1000B0002FEF8F3F9207A9F7E2E022960C9473028C
:1000C000A6E0B0E0E6E6F0E00C9457029E838D8354
:1000D0008FEF90E09A838983E5E3F0E01082E2E31A
:1000E000F0E08FEF8083E1E3F0E010821C821B825E
:1000F00010C0E0E3F0E08081282F332789819A81C6
:10010000822393239A8389838B819C8101969C838C
:100110008B832B813C818D819E812817390748F381
:10012000E2E3F0E01082E1E3F0E08FEF8083898189
:100130009A81E2E026960C947302A2E0B0E0E3EA32
:10014000F0E00C9457029A838983E5E3F0E081E2C2
:100150008083E2E3F0E080918000909181008083D1
:1001600089819A810E944900E5E3F0E082E2808380
:10017000E2E3F0E0809182009091830080838981A6
:100180009A810E944900E5E3F0E084E28083E2E3A3
:10019000F0E08091840090918500808389819A812C
:1001A0000E944900E5E3F0E088E28083E2E3F0E0CA
:1001B0008091860090918700808389819A810E9436
:1001C0004900E2E022960C947302AEE0B0E0EBEE60
:1001D000F0E00C9457029E878D878D859E850E9446
:1001E00060009595879595958795959587959595B3
:1001F00087959C878B8720918800309189008B851B
:100200009C858217930709F4D6C01A86198671C097
:1002100089859A85880F991FFC01EE56FF4F8081D2
:10022000918198878F8381E090E0098402C0880FD4
:10023000991F0A94E2F79E838D832B853C858D81DF
:100240009E81A9014823592320918800309189007B
:100250008D819E8182239323481759070CF044C057
:1002600029853A85C901880F991FFC01E657FF4F80
:1002700080819181AC014F5F5F4FC901880F991F49
:10028000FC01E657FF4F5183408389859A85880F8B
:10029000991FFC01E657FF4F8081918180319105C4
:1002A0004CF089859A85880F991FFC01E657FF4F0E
:1002B000118210824F81588589859A85880F991FF0
:1002C000FC01E657FF4F80819181880F991FFC0147
:1002D000E05AFF4F20813181CA01880F991FFC012C
:1002E000E058FF4F3183208389859A8501969A874C
:1002F000898789859A85843091050CF489CF1A867F
:1003000019864DC081E090E0098402C0880F991FD2
:100310000A94E2F79C838B8389859A85880F991FBD
:10032000FC01EE56FF4F808191819A8389832B8552
:100330003C858B819C81822393230097B1F0498176
:100340005A8189819A81880F991FFC01E058FF4FDB
:10035000808191819C012260CA01880F991FFC0154
:10036000E058FF4F3183208315C049815A8189812C
:100370009A81880F991FFC01E058FF4F808191817D
:100380009C012D7FCA01880F991FFC01E058FF4F87
:100390003183208389859A8501969A878987898503
:1003A0009A85843091050CF4ADCF8B859C85909314
:1003B000890080938800E2E02E960C947302A4E0FA
:1003C000B0E0E5EEF1E00C9457029A8389837C83D8
:1003D0006B8389819A810E949D008B819C810E9400
:1003E000E500E2E024960C947302CFE5D4E0DEBF92
:1003F000CDBFA4E3B0E0E4E3F0E080818F628C93B2
:10040000E1E3F0E08081E1E3F0E08FEF8083E2E37D
:10041000F0E01082809160009091610090938100E3
:10042000809380008091620090916300909383009C
:100430008093820080916400909165009093850084
:10044000809384008091660090916700909387006C
:1004500080938600109297001092960081E090E0C1
:10046000909399008093980082E090E0909393009D
:100470008093920083E090E09093950080939400A5
:100480006FE770E088EC90E00E94DF01F9CF2F92D7
:100490003F924F925F926F927F928F929F92AF9214
:1004A000BF92CF92DF92EF92FF920F931F93CF9361
:1004B000DF93CDB7DEB7CA1BDB0B0FB6F894DEBFF8
:1004C0000FBECDBF09942A88398848885F846E841E
:1004D0007D848C849B84AA84B984C884DF80EE8068
:1004E000FD800C811B81AA81B981CE0FD11D0FB671
:0E04F000F894DEBF0FBECDBFED010895FFCF23
:1004FE00FC00280075007900A900D900DD00680015
:10050E00FD00F900ED009D00D4003D00D500C500B2
:00000001FF
