:100000000C942A000C9447000C9447000C94470071
:100010000C9447000C9447000C9447000C94470044
:100020000C9447000C9447000C9447000C94470034
:100030000C9447000C9447000C9447000C94470024
:100040000C9447000C9447000C9447000C94470014
:100050000C94470011241FBECFE5D4E0DEBFCDBF16
:1000600010E0A0E6B0E0ECE3F3E002C005900D92F2
:10007000A038B107D9F710E0A0E8B0E001C01D92A8
:10008000A838B107E1F70E943E010C949D010C9441
:100090000000A2E0B0E0EFE4F0E00C9476019A8377
:1000A000898389819A8101979A83898389819A8139
:1000B0002FEF8F3F9207A9F7E2E022960C9492016E
:1000C000A6E0B0E0E6E6F0E00C9476019E838D8336
:1000D0008FEF90E09A838983E5E3F0E01082A4E358
:1000E000B0E0E4E3F0E0808180628C93E5E3F0E04F
:1000F0001082E1E3F0E01082E2E3F0E08FEF808332
:100100001C821B8210C0E0E3F0E08081282F33279F
:1001100089819A81822393239A8389838B819C810D
:1001200001969C838B832B813C818D819E81281736
:10013000390748F3E2E3F0E01082E1E3F0E08FEF0B
:10014000808389819A81E2E026960C949201A2E054
:10015000B0E0EDEAF0E00C9476019A838983E5E360
:10016000F0E082E08083E2E3F0E080918200909111
:100170008300808389819A810E944900E5E3F0E051
:1001800084E08083E2E3F0E0809184009091850038
:10019000808389819A810E944900E5E3F0E088E04C
:1001A0008083E2E3F0E08091860090918700808375
:1001B00089819A810E944900E5E3F0E081E0808333
:1001C000E2E3F0E08091800090918100808389815A
:1001D0009A810E944900E2E022960C949201A4E0E8
:1001E000B0E0E5EFF0E00C9476019C838B838B818B
:1001F0009C810E9460009A83898389819A818F7093
:100200009070880F991FFC01E05AFF4F8081918107
:10021000909381008093800089819A81959587953C
:100220009595879595958795959587958F709070FD
:10023000880F991FFC01E05AFF4F808191818260F5
:100240009093830080938200E2E024960C949201C4
:10025000A4E0B0E0EEE2F1E00C9476019A838983A9
:100260007C836B8389819A810E94A7008B819C810A
:100270000E94EF00E2E024960C949201CFE5D4E0D6
:10028000DEBFCDBFA4E3B0E0E4E3F0E080818F60A7
:100290008C93E1E3F0E08081E1E3F0E08FEF808395
:1002A000E2E3F0E0108210928100109280008091D1
:1002B00080009091810090938500809384006FE787
:1002C00070E088EC90E00E942801F9CF2F923F92D5
:1002D0004F925F926F927F928F929F92AF92BF9256
:1002E000CF92DF92EF92FF920F931F93CF93DF9302
:1002F000CDB7DEB7CA1BDB0B0FB6F894DEBF0FBE5F
:10030000CDBF09942A88398848885F846E847D84AB
:100310008C849B84AA84B984C884DF80EE80FD80AD
:100320000C811B81AA81B981CE0FD11D0FB6F89423
:0C033000DEBF0FBECDBFED010895FFCF72
:10033C00FC00280075007900A900D900DD006800D8
:10034C00FD00F900ED009D00D4003D00D500C50076
:00000001FF
