:100000000C942A000C9447000C9447000C94470071
:100010000C9447000C9447000C9447000C94470044
:100020000C9447000C9447000C9447000C94470034
:100030000C9447000C9447000C9447000C94470024
:100040000C9447000C9447000C9447000C94470014
:100050000C94470011241FBECFE5D4E0DEBFCDBF16
:1000600010E0A0E6B0E0EAE9F3E002C005900D92EE
:10007000A038B107D9F710E0A0E8B0E001C01D92A8
:10008000A838B107E1F70E943C010C94CC010C9414
:100090000000A2E0B0E0EFE4F0E00C94A5019A8348
:1000A000898389819A8101979A83898389819A8139
:1000B0002FEF8F3F9207A9F7E2E022960C94C1013F
:1000C000A8E0B0E0E6E6F0E00C94A50198878F8305
:1000D00084E190E09E838D8388C084E190E09C83DE
:1000E0008B8379C08F8198859A83898305C08981A4
:1000F0009A8101979A83898389819A810097B9F7B8
:100100008B819C8101979C838B83E5E3F0E0808168
:100110008130B1F4E2E3F0E01082E5E3F0E0108238
:1001200088EC90E00E944900E5E3F0E082E0808303
:10013000E2E3F0E0809182009091830080834BC0E5
:10014000E5E3F0E080818233B1F4E2E3F0E0108295
:10015000E5E3F0E0108288EC90E00E944900E5E3DE
:10016000F0E084E08083E2E3F0E08091840090910D
:100170008500808330C0E5E3F0E080818433B1F412
:10018000E2E3F0E01082E5E3F0E0108288EC90E03A
:100190000E944900E5E3F0E088E08083E2E3F0E0DC
:1001A0008091860090918700808315C0E2E3F0E0A3
:1001B0001082E5E3F0E0108288EC90E00E944900B4
:1001C000E5E3F0E081E08083E2E3F0E0809180000D
:1001D0009091810080838B819C81009709F082CF70
:1001E0008D819E8101979E838D838D819E81009755
:1001F00009F073CFE2E028960C94C101A4E0B0E0CE
:10020000E4E0F1E00C94A5018FEF90E09A838983FC
:10021000E5E3F0E01082A4E3B0E0E4E3F0E0808105
:1002200080628C93E5E3F0E01082E1E3F0E010827D
:10023000E2E3F0E08FEF80831C821B820BC0E0E3DF
:10024000F0E0808199279A8389838B819C81019634
:100250009C838B838B819C818F37910584F3E2E3B0
:10026000F0E01082E1E3F0E08FEF808389819A81F2
:10027000E2E024960C94C101CBE5D4E0DEBFCDBF13
:100280001C821B821A821982A4E3B0E0E4E3F0E04E
:1002900080818F608C93E1E3F0E08081E1E3F0E026
:1002A0008FEF8083E5E3F0E081E08083E2E3F0E03C
:1002B00010821092810010928000809180009091B5
:1002C0008100909385008093840084E690E00E94F2
:1002D00060000E94FE009C838B838B819C818F70C9
:1002E0009070880F991FFC01E05AFF4F8081918127
:1002F00090938100809380008B819C819595879558
:100300009595879595958795959587958F7090701C
:10031000880F991FFC01E05AFF4F80819181826014
:100320009093830080938200D0CF2F923F924F9280
:100330005F926F927F928F929F92AF92BF92CF9275
:10034000DF92EF92FF920F931F93CF93DF93CDB77E
:10035000DEB7CA1BDB0B0FB6F894DEBF0FBECDBFF6
:1003600009942A88398848885F846E847D848C84C7
:100370009B84AA84B984C884DF80EE80FD800C81D0
:100380001B81AA81B981CE0FD11D0FB6F894DEBFB3
:0A0390000FBECDBFED010895FFCFB1
:10039A00FC00280075007900A900D900DD0068007A
:1003AA00FD00F900ED009D00D4003D00D500C50018
:00000001FF
