:100000000C942A000C9445000C9445000C94450077
:100010000C9445000C9445000C9445000C9445004C
:100020000C9445000C9445000C9445000C9445003C
:100030000C9445000C9445000C9445000C9445002C
:100040000C9445000C9445000C9445000C9445001C
:100050000C94450011241FBECFE5D4E0DEBFCDBF18
:1000600010E0A0E6B0E0E6EEF0E002C005900D92F0
:10007000A036B107D9F710E0A0E6B0E001C01D92AC
:10008000A036B107E1F70C945C000C94000064E129
:1000900070E00DC02150304021153105D9F7415095
:1000A000504011F09C01F8CF6150704021F09C014C
:1000B00048EC50E0F1CF0895CFE5D4E0DEBFCDBFEE
:1000C000A09A81B38FEF81BB82B3856782BBA89A68
:1000D00084E190E00E94470085B315BA84E190E086
:0600E0000E944700F4CF6E
:00000001FF
