:100000000C942A000C9445000C9445000C94450077
:100010000C9445000C9445000C9445000C9445004C
:100020000C9445000C9445000C9445000C9445003C
:100030000C9445000C9445000C9445000C9445002C
:100040000C9445000C9445000C9445000C9445001C
:100050000C94450011241FBECFE5D4E0DEBFCDBF18
:1000600010E0A0E6B0E0E0ECF1E002C005900D92F7
:10007000A038B107D9F710E0A0E8B0E001C01D92A8
:10008000A838B107E1F70C948A000C940000089599
:100090001F93FC0110918200B0918400A091860012
:1000A0009091800064E170E02FC021503040211514
:1000B0003105D9F74150504085B3813031F412BA3F
:1000C00015BA82E085BB12BB17C085B3823031F40C
:1000D00012BA15BA84E085BBB2BB0EC085B38430BA
:1000E00031F412BA15BA88E085BBA2BB05C012BABA
:1000F00015BA81E085BB92BB4115510511F09F01F6
:10010000D6CF6150704021F09F0144E150E0CFCF45
:100110001F910895CFE5D4E0DEBFCDBF84B38F60DB
:1001200084BB81B38FEF81BB81E085BB12BA109293
:100130008100109280001092850010928400C0E02F
:10014000D0E000E010E0FE01EE0FFF1FE05AFF4F8D
:1001500080819181909383008093820090938700A7
:100160008093860084E690E00E9448002196C0318A
:10017000D1054CF30F5F1F4F003111051CF000E05B
:1001800010E003C00115110549F41092810010928E
:10019000800010928500109284000FC0F801EE0FCD
:1001A000FF1FE05AFF4F80819181909381008093DF
:1001B00080009093850080938400C0E0D0E0C3CF9E
:1001C000FC00280075007900A900D900DD00680056
:1001D000FD00F900ED009D00D4003D00D500C500F4
:00000001FF
