:100000000C942A000C9447000C9447000C94470071
:100010000C9447000C9447000C9447000C94470044
:100020000C9447000C9447000C9447000C94470034
:100030000C9447000C9447000C9447000C94470024
:100040000C9447000C9447000C9447000C94470014
:100050000C94470011241FBECFE5D4E0DEBFCDBF16
:1000600010E0A0E6B0E0E2EAF1E002C005900D92F7
:10007000A036B107D9F710E0A0E6B0E001C01D92AC
:10008000A036B107E1F70E947A000C94D0000C94DE
:100090000000A6E0B0E0EFE4F0E00C94A9009E833D
:1000A0008D8388EC90E09C838B831CC084EF91E06F
:1000B0009A8389830EC08D819E8101979E838D8353
:1000C0008D819E810097B9F789819A8101979A83E2
:1000D000898389819A81009799F78B819C81019707
:1000E0009C838B838B819C81009701F7E2E02696AD
:1000F0000C94C500CFE5D4E0DEBFCDBFE1E3F0E076
:1001000081E08083A2E3B0E0E2E3F0E080818F7BD6
:100110008C9384EF91E00E944900A2E3B0E0E2E317
:10012000F0E0808180648C9384EF91E00E9449002C
:10013000E9CF2F923F924F925F926F927F928F9270
:100140009F92AF92BF92CF92DF92EF92FF920F9366
:100150001F93CF93DF93CDB7DEB7CA1BDB0B0FB670
:10016000F894DEBF0FBECDBF09942A88398848882D
:100170005F846E847D848C849B84AA84B984C884C3
:10018000DF80EE80FD800C811B81AA81B981CE0FBA
:10019000D11D0FB6F894DEBF0FBECDBFED0108959F
:0201A000FFCF8F
:00000001FF
